{
	"test.sol": {
		"test": {
			"abi": [
				{
					"inputs": [
						{
							"internalType": "uint256",
							"name": "",
							"type": "uint256"
						}
					],
					"name": "arrTest",
					"outputs": [
						{
							"internalType": "uint256",
							"name": "",
							"type": "uint256"
						}
					],
					"stateMutability": "view",
					"type": "function"
				},
				{
					"inputs": [],
					"name": "getArr",
					"outputs": [
						{
							"internalType": "uint256[]",
							"name": "",
							"type": "uint256[]"
						}
					],
					"stateMutability": "view",
					"type": "function"
				},
				{
					"inputs": [
						{
							"internalType": "uint256",
							"name": "",
							"type": "uint256"
						}
					],
					"name": "mapTest",
					"outputs": [
						{
							"internalType": "uint256",
							"name": "",
							"type": "uint256"
						}
					],
					"stateMutability": "view",
					"type": "function"
				}
			],
			"devdoc": {
				"kind": "dev",
				"methods": {},
				"version": 1
			},
			"evm": {
				"assembly": "    /* \"test.sol\":77:115  uint256[] public arrTest = [1,2,3,4,5] */\n  0x0120\n    /* \"test.sol\":57:344  contract test {... */\n  0x40\n    /* \"test.sol\":77:115  uint256[] public arrTest = [1,2,3,4,5] */\n  mstore\n    /* \"test.sol\":105:106  1 */\n  0x01\n    /* \"test.sol\":57:344  contract test {... */\n  0x80\n    /* \"test.sol\":77:115  uint256[] public arrTest = [1,2,3,4,5] */\n  swap1\n  dup2\n  mstore\n    /* \"test.sol\":107:108  2 */\n  0x02\n    /* \"test.sol\":77:115  uint256[] public arrTest = [1,2,3,4,5] */\n  0xa0\n  mstore\n    /* \"test.sol\":109:110  3 */\n  0x03\n    /* \"test.sol\":77:115  uint256[] public arrTest = [1,2,3,4,5] */\n  0xc0\n  mstore\n    /* \"test.sol\":111:112  4 */\n  0x04\n    /* \"test.sol\":77:115  uint256[] public arrTest = [1,2,3,4,5] */\n  0xe0\n  mstore\n    /* \"test.sol\":113:114  5 */\n  0x05\n    /* \"test.sol\":77:115  uint256[] public arrTest = [1,2,3,4,5] */\n  0x0100\n  dup2\n  swap1\n  mstore\n  tag_1\n  swap2\n  0x00\n  swap2\n  tag_2\n  jump\t// in\ntag_1:\n  pop\n    /* \"test.sol\":57:344  contract test {... */\n  callvalue\n  dup1\n  iszero\n  tag_3\n  jumpi\n  0x00\n  dup1\n  revert\ntag_3:\n  pop\n  jump(tag_4)\ntag_2:\n  dup3\n  dup1\n  sload\n  dup3\n  dup3\n  sstore\n  swap1\n  0x00\n  mstore\n  keccak256(0x00, 0x20)\n  swap1\n  dup2\n  add\n  swap3\n  dup3\n  iszero\n  tag_7\n  jumpi\n  swap2\n  0x20\n  mul\n  dup3\n  add\ntag_6:\n  dup3\n  dup2\n  gt\n  iszero\n  tag_7\n  jumpi\n  dup3\n  mload\n  dup3\n  swap1\n  0xff\n  and\n  swap1\n  sstore\n  swap2\n  0x20\n  add\n  swap2\n  swap1\n  0x01\n  add\n  swap1\n  jump(tag_6)\ntag_7:\n  pop\n  tag_8\n  swap3\n  swap2\n  pop\n  tag_9\n  jump\t// in\ntag_8:\n  pop\n  swap1\n  jump\t// out\ntag_9:\ntag_10:\n  dup1\n  dup3\n  gt\n  iszero\n  tag_8\n  jumpi\n  0x00\n  dup2\n  sstore\n  0x01\n  add\n  jump(tag_10)\ntag_4:\n  dataSize(sub_0)\n  dup1\n  dataOffset(sub_0)\n  0x00\n  codecopy\n  0x00\n  return\nstop\n\nsub_0: assembly {\n        /* \"test.sol\":57:344  contract test {... */\n      mstore(0x40, 0x80)\n      callvalue\n      dup1\n      iszero\n      tag_1\n      jumpi\n      0x00\n      dup1\n      revert\n    tag_1:\n      pop\n      jumpi(tag_2, lt(calldatasize, 0x04))\n      shr(0xe0, calldataload(0x00))\n      dup1\n      0xaa11ebd1\n      eq\n      tag_3\n      jumpi\n      dup1\n      0xd63ffcc2\n      eq\n      tag_4\n      jumpi\n      dup1\n      0xfb8cbced\n      eq\n      tag_5\n      jumpi\n    tag_2:\n      0x00\n      dup1\n      revert\n        /* \"test.sol\":121:165  mapping (uint256 => uint256 ) public mapTest */\n    tag_3:\n      tag_6\n      tag_7\n      calldatasize\n      0x04\n      tag_8\n      jump\t// in\n    tag_7:\n      mstore(0x20, 0x01)\n      0x00\n      swap1\n      dup2\n      mstore\n      0x40\n      swap1\n      keccak256\n      sload\n      dup2\n      jump\n    tag_6:\n      mload(0x40)\n        /* \"#utility.yul\":345:370   */\n      swap1\n      dup2\n      mstore\n        /* \"#utility.yul\":333:335   */\n      0x20\n        /* \"#utility.yul\":318:336   */\n      add\n        /* \"test.sol\":121:165  mapping (uint256 => uint256 ) public mapTest */\n    tag_10:\n      mload(0x40)\n      dup1\n      swap2\n      sub\n      swap1\n      return\n        /* \"test.sol\":77:115  uint256[] public arrTest = [1,2,3,4,5] */\n    tag_4:\n      tag_6\n      tag_13\n      calldatasize\n      0x04\n      tag_8\n      jump\t// in\n    tag_13:\n      tag_14\n      jump\t// in\n        /* \"test.sol\":171:258  function getArr() public view returns(uint256[] memory) {... */\n    tag_5:\n      tag_16\n      tag_17\n      jump\t// in\n    tag_16:\n      mload(0x40)\n      tag_10\n      swap2\n      swap1\n      tag_19\n      jump\t// in\n        /* \"test.sol\":77:115  uint256[] public arrTest = [1,2,3,4,5] */\n    tag_14:\n      0x00\n      dup2\n      dup2\n      sload\n      dup2\n      lt\n      tag_20\n      jumpi\n      0x00\n      dup1\n      revert\n    tag_20:\n      0x00\n      swap2\n      dup3\n      mstore\n      0x20\n      swap1\n      swap2\n      keccak256\n      add\n      sload\n      swap1\n      pop\n      dup2\n      jump\t// out\n        /* \"test.sol\":171:258  function getArr() public view returns(uint256[] memory) {... */\n    tag_17:\n        /* \"test.sol\":209:225  uint256[] memory */\n      0x60\n        /* \"test.sol\":244:251  arrTest */\n      0x00\n        /* \"test.sol\":237:251  return arrTest */\n      dup1\n      sload\n      dup1\n      0x20\n      mul\n      0x20\n      add\n      mload(0x40)\n      swap1\n      dup2\n      add\n      0x40\n      mstore\n      dup1\n      swap3\n      swap2\n      swap1\n      dup2\n      dup2\n      mstore\n      0x20\n      add\n      dup3\n      dup1\n      sload\n      dup1\n      iszero\n      tag_23\n      jumpi\n      0x20\n      mul\n      dup3\n      add\n      swap2\n      swap1\n      0x00\n      mstore\n      keccak256(0x00, 0x20)\n      swap1\n    tag_24:\n      dup2\n      sload\n      dup2\n      mstore\n      0x20\n      add\n      swap1\n      0x01\n      add\n      swap1\n      dup1\n      dup4\n      gt\n      tag_24\n      jumpi\n    tag_23:\n      pop\n      pop\n      pop\n      pop\n      pop\n      swap1\n      pop\n        /* \"test.sol\":171:258  function getArr() public view returns(uint256[] memory) {... */\n      swap1\n      jump\t// out\n        /* \"#utility.yul\":14:194   */\n    tag_8:\n        /* \"#utility.yul\":73:79   */\n      0x00\n        /* \"#utility.yul\":126:128   */\n      0x20\n        /* \"#utility.yul\":114:123   */\n      dup3\n        /* \"#utility.yul\":105:112   */\n      dup5\n        /* \"#utility.yul\":101:124   */\n      sub\n        /* \"#utility.yul\":97:129   */\n      slt\n        /* \"#utility.yul\":94:146   */\n      iszero\n      tag_27\n      jumpi\n        /* \"#utility.yul\":142:143   */\n      0x00\n        /* \"#utility.yul\":139:140   */\n      dup1\n        /* \"#utility.yul\":132:144   */\n      revert\n        /* \"#utility.yul\":94:146   */\n    tag_27:\n      pop\n        /* \"#utility.yul\":165:188   */\n      calldataload\n      swap2\n        /* \"#utility.yul\":14:194   */\n      swap1\n      pop\n      jump\t// out\n        /* \"#utility.yul\":381:1013   */\n    tag_19:\n        /* \"#utility.yul\":552:554   */\n      0x20\n        /* \"#utility.yul\":604:625   */\n      dup1\n      dup3\n      mstore\n        /* \"#utility.yul\":674:687   */\n      dup3\n      mload\n        /* \"#utility.yul\":577:595   */\n      dup3\n      dup3\n      add\n        /* \"#utility.yul\":696:718   */\n      dup2\n      swap1\n      mstore\n        /* \"#utility.yul\":523:527   */\n      0x00\n      swap2\n        /* \"#utility.yul\":552:554   */\n      swap1\n        /* \"#utility.yul\":775:790   */\n      dup5\n      dup3\n      add\n      swap1\n        /* \"#utility.yul\":749:751   */\n      0x40\n        /* \"#utility.yul\":734:752   */\n      dup6\n      add\n      swap1\n        /* \"#utility.yul\":523:527   */\n      dup5\n        /* \"#utility.yul\":818:987   */\n    tag_30:\n        /* \"#utility.yul\":832:838   */\n      dup2\n        /* \"#utility.yul\":829:830   */\n      dup2\n        /* \"#utility.yul\":826:839   */\n      lt\n        /* \"#utility.yul\":818:987   */\n      iszero\n      tag_32\n      jumpi\n        /* \"#utility.yul\":893:906   */\n      dup4\n      mload\n        /* \"#utility.yul\":881:907   */\n      dup4\n      mstore\n        /* \"#utility.yul\":962:977   */\n      swap3\n      dup5\n      add\n      swap3\n        /* \"#utility.yul\":927:939   */\n      swap2\n      dup5\n      add\n      swap2\n        /* \"#utility.yul\":854:855   */\n      0x01\n        /* \"#utility.yul\":847:856   */\n      add\n        /* \"#utility.yul\":818:987   */\n      jump(tag_30)\n    tag_32:\n      pop\n        /* \"#utility.yul\":1004:1007   */\n      swap1\n      swap7\n        /* \"#utility.yul\":381:1013   */\n      swap6\n      pop\n      pop\n      pop\n      pop\n      pop\n      pop\n      jump\t// out\n\n    auxdata: 0xa2646970667358221220bc1d79c8415063b360af21fd47408aa4880edcc965229aa887823a3defdea13f64736f6c63430008120033\n}\n",
				"bytecode": {
					"linkReferences": {},
					"object": "61012060405260016080908152600260a052600360c052600460e052600561010081905261002f91600091610042565b5034801561003c57600080fd5b506100a7565b828054828255906000526020600020908101928215610082579160200282015b82811115610082578251829060ff16905591602001919060010190610062565b5061008e929150610092565b5090565b5b8082111561008e5760008155600101610093565b6101ad806100b66000396000f3fe608060405234801561001057600080fd5b50600436106100415760003560e01c8063aa11ebd114610046578063d63ffcc214610079578063fb8cbced1461008c575b600080fd5b61006661005436600461011a565b60016020526000908152604090205481565b6040519081526020015b60405180910390f35b61006661008736600461011a565b6100a1565b6100946100c2565b6040516100709190610133565b600081815481106100b157600080fd5b600091825260209091200154905081565b6060600080548060200260200160405190810160405280929190818152602001828054801561011057602002820191906000526020600020905b8154815260200190600101908083116100fc575b5050505050905090565b60006020828403121561012c57600080fd5b5035919050565b6020808252825182820181905260009190848201906040850190845b8181101561016b5783518352928401929184019160010161014f565b5090969550505050505056fea2646970667358221220bc1d79c8415063b360af21fd47408aa4880edcc965229aa887823a3defdea13f64736f6c63430008120033",
					"opcodes": "PUSH2 0x120 PUSH1 0x40 MSTORE PUSH1 0x1 PUSH1 0x80 SWAP1 DUP2 MSTORE PUSH1 0x2 PUSH1 0xA0 MSTORE PUSH1 0x3 PUSH1 0xC0 MSTORE PUSH1 0x4 PUSH1 0xE0 MSTORE PUSH1 0x5 PUSH2 0x100 DUP2 SWAP1 MSTORE PUSH2 0x2F SWAP2 PUSH1 0x0 SWAP2 PUSH2 0x42 JUMP JUMPDEST POP CALLVALUE DUP1 ISZERO PUSH2 0x3C JUMPI PUSH1 0x0 DUP1 REVERT JUMPDEST POP PUSH2 0xA7 JUMP JUMPDEST DUP3 DUP1 SLOAD DUP3 DUP3 SSTORE SWAP1 PUSH1 0x0 MSTORE PUSH1 0x20 PUSH1 0x0 KECCAK256 SWAP1 DUP2 ADD SWAP3 DUP3 ISZERO PUSH2 0x82 JUMPI SWAP2 PUSH1 0x20 MUL DUP3 ADD JUMPDEST DUP3 DUP2 GT ISZERO PUSH2 0x82 JUMPI DUP3 MLOAD DUP3 SWAP1 PUSH1 0xFF AND SWAP1 SSTORE SWAP2 PUSH1 0x20 ADD SWAP2 SWAP1 PUSH1 0x1 ADD SWAP1 PUSH2 0x62 JUMP JUMPDEST POP PUSH2 0x8E SWAP3 SWAP2 POP PUSH2 0x92 JUMP JUMPDEST POP SWAP1 JUMP JUMPDEST JUMPDEST DUP1 DUP3 GT ISZERO PUSH2 0x8E JUMPI PUSH1 0x0 DUP2 SSTORE PUSH1 0x1 ADD PUSH2 0x93 JUMP JUMPDEST PUSH2 0x1AD DUP1 PUSH2 0xB6 PUSH1 0x0 CODECOPY PUSH1 0x0 RETURN INVALID PUSH1 0x80 PUSH1 0x40 MSTORE CALLVALUE DUP1 ISZERO PUSH2 0x10 JUMPI PUSH1 0x0 DUP1 REVERT JUMPDEST POP PUSH1 0x4 CALLDATASIZE LT PUSH2 0x41 JUMPI PUSH1 0x0 CALLDATALOAD PUSH1 0xE0 SHR DUP1 PUSH4 0xAA11EBD1 EQ PUSH2 0x46 JUMPI DUP1 PUSH4 0xD63FFCC2 EQ PUSH2 0x79 JUMPI DUP1 PUSH4 0xFB8CBCED EQ PUSH2 0x8C JUMPI JUMPDEST PUSH1 0x0 DUP1 REVERT JUMPDEST PUSH2 0x66 PUSH2 0x54 CALLDATASIZE PUSH1 0x4 PUSH2 0x11A JUMP JUMPDEST PUSH1 0x1 PUSH1 0x20 MSTORE PUSH1 0x0 SWAP1 DUP2 MSTORE PUSH1 0x40 SWAP1 KECCAK256 SLOAD DUP2 JUMP JUMPDEST PUSH1 0x40 MLOAD SWAP1 DUP2 MSTORE PUSH1 0x20 ADD JUMPDEST PUSH1 0x40 MLOAD DUP1 SWAP2 SUB SWAP1 RETURN JUMPDEST PUSH2 0x66 PUSH2 0x87 CALLDATASIZE PUSH1 0x4 PUSH2 0x11A JUMP JUMPDEST PUSH2 0xA1 JUMP JUMPDEST PUSH2 0x94 PUSH2 0xC2 JUMP JUMPDEST PUSH1 0x40 MLOAD PUSH2 0x70 SWAP2 SWAP1 PUSH2 0x133 JUMP JUMPDEST PUSH1 0x0 DUP2 DUP2 SLOAD DUP2 LT PUSH2 0xB1 JUMPI PUSH1 0x0 DUP1 REVERT JUMPDEST PUSH1 0x0 SWAP2 DUP3 MSTORE PUSH1 0x20 SWAP1 SWAP2 KECCAK256 ADD SLOAD SWAP1 POP DUP2 JUMP JUMPDEST PUSH1 0x60 PUSH1 0x0 DUP1 SLOAD DUP1 PUSH1 0x20 MUL PUSH1 0x20 ADD PUSH1 0x40 MLOAD SWAP1 DUP2 ADD PUSH1 0x40 MSTORE DUP1 SWAP3 SWAP2 SWAP1 DUP2 DUP2 MSTORE PUSH1 0x20 ADD DUP3 DUP1 SLOAD DUP1 ISZERO PUSH2 0x110 JUMPI PUSH1 0x20 MUL DUP3 ADD SWAP2 SWAP1 PUSH1 0x0 MSTORE PUSH1 0x20 PUSH1 0x0 KECCAK256 SWAP1 JUMPDEST DUP2 SLOAD DUP2 MSTORE PUSH1 0x20 ADD SWAP1 PUSH1 0x1 ADD SWAP1 DUP1 DUP4 GT PUSH2 0xFC JUMPI JUMPDEST POP POP POP POP POP SWAP1 POP SWAP1 JUMP JUMPDEST PUSH1 0x0 PUSH1 0x20 DUP3 DUP5 SUB SLT ISZERO PUSH2 0x12C JUMPI PUSH1 0x0 DUP1 REVERT JUMPDEST POP CALLDATALOAD SWAP2 SWAP1 POP JUMP JUMPDEST PUSH1 0x20 DUP1 DUP3 MSTORE DUP3 MLOAD DUP3 DUP3 ADD DUP2 SWAP1 MSTORE PUSH1 0x0 SWAP2 SWAP1 DUP5 DUP3 ADD SWAP1 PUSH1 0x40 DUP6 ADD SWAP1 DUP5 JUMPDEST DUP2 DUP2 LT ISZERO PUSH2 0x16B JUMPI DUP4 MLOAD DUP4 MSTORE SWAP3 DUP5 ADD SWAP3 SWAP2 DUP5 ADD SWAP2 PUSH1 0x1 ADD PUSH2 0x14F JUMP JUMPDEST POP SWAP1 SWAP7 SWAP6 POP POP POP POP POP POP JUMP INVALID LOG2 PUSH5 0x6970667358 0x22 SLT KECCAK256 0xBC SAR PUSH26 0xC8415063B360AF21FD47408AA4880EDCC965229AA887823A3DEF 0xDE LOG1 EXTCODEHASH PUSH5 0x736F6C6343 STOP ADDMOD SLT STOP CALLER "
				},
				"gasEstimates": {
					"creation": {
						"codeDepositCost": "85800",
						"executionCost": "infinite",
						"totalCost": "infinite"
					},
					"external": {
						"arrTest(uint256)": "4564",
						"getArr()": "infinite",
						"mapTest(uint256)": "2405"
					}
				},
				"methodIdentifiers": {
					"arrTest(uint256)": "d63ffcc2",
					"getArr()": "fb8cbced",
					"mapTest(uint256)": "aa11ebd1"
				}
			},
			"storageLayout": {
				"storage": [
					{
						"astId": 10,
						"contract": "test.sol:test",
						"label": "arrTest",
						"offset": 0,
						"slot": "0",
						"type": "t_array(t_uint256)dyn_storage"
					},
					{
						"astId": 14,
						"contract": "test.sol:test",
						"label": "mapTest",
						"offset": 0,
						"slot": "1",
						"type": "t_mapping(t_uint256,t_uint256)"
					}
				],
				"types": {
					"t_array(t_uint256)dyn_storage": {
						"base": "t_uint256",
						"encoding": "dynamic_array",
						"label": "uint256[]",
						"numberOfBytes": "32"
					},
					"t_mapping(t_uint256,t_uint256)": {
						"encoding": "mapping",
						"key": "t_uint256",
						"label": "mapping(uint256 => uint256)",
						"numberOfBytes": "32",
						"value": "t_uint256"
					},
					"t_uint256": {
						"encoding": "inplace",
						"label": "uint256",
						"numberOfBytes": "32"
					}
				}
			},
			"userdoc": {
				"kind": "user",
				"methods": {},
				"version": 1
			}
		}
	}
}